{
  "contractName": "High_low",
  "abi": [
    {
      "constant": true,
      "inputs": [
        {
          "name": "",
          "type": "address"
        }
      ],
      "name": "maximum_expiry_time_of_bet",
      "outputs": [
        {
          "name": "",
          "type": "uint256"
        }
      ],
      "payable": false,
      "stateMutability": "view",
      "type": "function"
    },
    {
      "constant": true,
      "inputs": [
        {
          "name": "",
          "type": "address"
        }
      ],
      "name": "valid_trader",
      "outputs": [
        {
          "name": "",
          "type": "bool"
        }
      ],
      "payable": false,
      "stateMutability": "view",
      "type": "function"
    },
    {
      "constant": true,
      "inputs": [
        {
          "name": "",
          "type": "address"
        }
      ],
      "name": "broker_map",
      "outputs": [
        {
          "name": "stake_amount",
          "type": "uint256"
        }
      ],
      "payable": false,
      "stateMutability": "view",
      "type": "function"
    },
    {
      "constant": true,
      "inputs": [
        {
          "name": "",
          "type": "uint256"
        }
      ],
      "name": "broker_addresses",
      "outputs": [
        {
          "name": "",
          "type": "address"
        }
      ],
      "payable": false,
      "stateMutability": "view",
      "type": "function"
    },
    {
      "constant": true,
      "inputs": [
        {
          "name": "",
          "type": "uint256"
        }
      ],
      "name": "game_id_map_broker",
      "outputs": [
        {
          "name": "",
          "type": "address"
        }
      ],
      "payable": false,
      "stateMutability": "view",
      "type": "function"
    },
    {
      "constant": true,
      "inputs": [
        {
          "name": "",
          "type": "address"
        }
      ],
      "name": "game_number",
      "outputs": [
        {
          "name": "",
          "type": "uint256"
        }
      ],
      "payable": false,
      "stateMutability": "view",
      "type": "function"
    },
    {
      "constant": true,
      "inputs": [
        {
          "name": "",
          "type": "uint256"
        },
        {
          "name": "",
          "type": "uint256"
        }
      ],
      "name": "game_id_map_trader",
      "outputs": [
        {
          "name": "bet_amount",
          "type": "uint256"
        },
        {
          "name": "better_address",
          "type": "address"
        },
        {
          "name": "option",
          "type": "bool"
        }
      ],
      "payable": false,
      "stateMutability": "view",
      "type": "function"
    },
    {
      "constant": true,
      "inputs": [],
      "name": "game_id",
      "outputs": [
        {
          "name": "",
          "type": "uint256"
        }
      ],
      "payable": false,
      "stateMutability": "view",
      "type": "function"
    },
    {
      "constant": true,
      "inputs": [
        {
          "name": "",
          "type": "address"
        },
        {
          "name": "",
          "type": "uint256"
        }
      ],
      "name": "game_set_map",
      "outputs": [
        {
          "name": "stock_name",
          "type": "string"
        },
        {
          "name": "strike_price",
          "type": "uint256"
        },
        {
          "name": "expiry_time",
          "type": "uint256"
        },
        {
          "name": "game_ids",
          "type": "uint256"
        }
      ],
      "payable": false,
      "stateMutability": "view",
      "type": "function"
    },
    {
      "constant": true,
      "inputs": [
        {
          "name": "",
          "type": "uint256"
        }
      ],
      "name": "gamers_map",
      "outputs": [
        {
          "name": "",
          "type": "uint256"
        }
      ],
      "payable": false,
      "stateMutability": "view",
      "type": "function"
    },
    {
      "constant": true,
      "inputs": [],
      "name": "admin",
      "outputs": [
        {
          "name": "",
          "type": "address"
        }
      ],
      "payable": false,
      "stateMutability": "view",
      "type": "function"
    },
    {
      "inputs": [],
      "payable": true,
      "stateMutability": "payable",
      "type": "constructor"
    },
    {
      "payable": true,
      "stateMutability": "payable",
      "type": "fallback"
    },
    {
      "anonymous": false,
      "inputs": [
        {
          "indexed": false,
          "name": "_sender",
          "type": "address"
        },
        {
          "indexed": false,
          "name": "_receiver",
          "type": "address"
        },
        {
          "indexed": false,
          "name": "_transfer_amount",
          "type": "uint256"
        }
      ],
      "name": "Transfer_amount",
      "type": "event"
    },
    {
      "constant": true,
      "inputs": [],
      "name": "check_broker",
      "outputs": [
        {
          "name": "",
          "type": "bool"
        }
      ],
      "payable": false,
      "stateMutability": "view",
      "type": "function"
    },
    {
      "constant": false,
      "inputs": [
        {
          "name": "input_amount",
          "type": "uint256"
        }
      ],
      "name": "add_broker",
      "outputs": [
        {
          "name": "",
          "type": "bool"
        }
      ],
      "payable": true,
      "stateMutability": "payable",
      "type": "function"
    },
    {
      "constant": false,
      "inputs": [
        {
          "name": "_stock_name",
          "type": "string"
        },
        {
          "name": "_strike_price",
          "type": "uint256"
        },
        {
          "name": "_expiry_time",
          "type": "uint256"
        }
      ],
      "name": "broker_set_game",
      "outputs": [
        {
          "name": "",
          "type": "bool"
        },
        {
          "name": "",
          "type": "uint256"
        }
      ],
      "payable": true,
      "stateMutability": "payable",
      "type": "function"
    },
    {
      "constant": false,
      "inputs": [
        {
          "name": "input_amount",
          "type": "uint256"
        }
      ],
      "name": "add_broker_stake",
      "outputs": [
        {
          "name": "",
          "type": "bool"
        },
        {
          "name": "",
          "type": "uint256"
        }
      ],
      "payable": true,
      "stateMutability": "payable",
      "type": "function"
    },
    {
      "constant": true,
      "inputs": [],
      "name": "check_trader",
      "outputs": [
        {
          "name": "",
          "type": "bool"
        }
      ],
      "payable": false,
      "stateMutability": "view",
      "type": "function"
    },
    {
      "constant": true,
      "inputs": [
        {
          "name": "_game_id",
          "type": "uint256"
        },
        {
          "name": "input_amount",
          "type": "uint256"
        }
      ],
      "name": "betting_check",
      "outputs": [
        {
          "name": "",
          "type": "bool"
        }
      ],
      "payable": false,
      "stateMutability": "view",
      "type": "function"
    },
    {
      "constant": false,
      "inputs": [
        {
          "name": "_game_id",
          "type": "uint256"
        },
        {
          "name": "input_amount",
          "type": "uint256"
        },
        {
          "name": "_option",
          "type": "bool"
        }
      ],
      "name": "betting",
      "outputs": [
        {
          "name": "",
          "type": "bool"
        }
      ],
      "payable": true,
      "stateMutability": "payable",
      "type": "function"
    },
    {
      "constant": false,
      "inputs": [
        {
          "name": "_game_id",
          "type": "uint256"
        },
        {
          "name": "result_options",
          "type": "uint256"
        }
      ],
      "name": "admin_setting_result_and_distribute_money",
      "outputs": [
        {
          "name": "",
          "type": "bool"
        }
      ],
      "payable": true,
      "stateMutability": "payable",
      "type": "function"
    },
    {
      "constant": false,
      "inputs": [
        {
          "name": "_game_id",
          "type": "uint256"
        },
        {
          "name": "input_amount",
          "type": "uint256"
        }
      ],
      "name": "trader_increase_bet_amount",
      "outputs": [
        {
          "name": "",
          "type": "bool"
        }
      ],
      "payable": true,
      "stateMutability": "payable",
      "type": "function"
    },
    {
      "constant": false,
      "inputs": [
        {
          "name": "_game_id",
          "type": "uint256"
        }
      ],
      "name": "trader_cancel_bet_and_widthdraw",
      "outputs": [
        {
          "name": "",
          "type": "bool"
        }
      ],
      "payable": true,
      "stateMutability": "payable",
      "type": "function"
    },
    {
      "constant": false,
      "inputs": [],
      "name": "broker_de_registration",
      "outputs": [
        {
          "name": "",
          "type": "bool"
        }
      ],
      "payable": true,
      "stateMutability": "payable",
      "type": "function"
    },
    {
      "constant": false,
      "inputs": [
        {
          "name": "input_amount_to_withdraw",
          "type": "uint256"
        }
      ],
      "name": "broker_withdraw_amount_from_stake",
      "outputs": [
        {
          "name": "",
          "type": "bool"
        }
      ],
      "payable": true,
      "stateMutability": "payable",
      "type": "function"
    }
  ],
  "bytecode": "0x6060604052336000806101000a81548173ffffffffffffffffffffffffffffffffffffffff021916908373ffffffffffffffffffffffffffffffffffffffff160217905550612946806100536000396000f300606060405260043610610133576000357c0100000000000000000000000000000000000000000000000000000000900463ffffffff1680630c3b8e17146101355780630da100bd1461017957806316dcd4cc146101b05780631d002508146101dd5780633314b6e41461020d57806336e7d1b51461025a5780635660a546146102ab57806363b0e93b146102f8578063659df7941461035b578063670477bf146103945780636c2d4b33146103f757806376ac8c1a1461044457806377ba194e146104c25780637b16dfb6146104e45780638afabb8714610511578063958e87181461054a578063a5e80eb714610573578063b3561e80146105a3578063bea1e334146105d3578063ccbf873714610656578063f3f6b1991461069a578063f61cae4c14610787578063f851a440146107be575b005b61015f60048080359060200190919080359060200190919080351515906020019091905050610813565b604051808215151515815260200191505060405180910390f35b61018f6004808035906020019091905050610b89565b60405180831515151581526020018281526020019250505060405180910390f35b34156101bb57600080fd5b6101c3610d04565b604051808215151515815260200191505060405180910390f35b6101f36004808035906020019091905050610d51565b604051808215151515815260200191505060405180910390f35b341561021857600080fd5b610244600480803573ffffffffffffffffffffffffffffffffffffffff16906020019091905050610eba565b6040518082815260200191505060405180910390f35b341561026557600080fd5b610291600480803573ffffffffffffffffffffffffffffffffffffffff16906020019091905050610ed2565b604051808215151515815260200191505060405180910390f35b34156102b657600080fd5b6102e2600480803573ffffffffffffffffffffffffffffffffffffffff16906020019091905050610ef2565b6040518082815260200191505060405180910390f35b341561030357600080fd5b6103196004808035906020019091905050610f10565b604051808273ffffffffffffffffffffffffffffffffffffffff1673ffffffffffffffffffffffffffffffffffffffff16815260200191505060405180910390f35b61037a6004808035906020019091908035906020019091905050610f4f565b604051808215151515815260200191505060405180910390f35b341561039f57600080fd5b6103b5600480803590602001909190505061194e565b604051808273ffffffffffffffffffffffffffffffffffffffff1673ffffffffffffffffffffffffffffffffffffffff16815260200191505060405180910390f35b341561040257600080fd5b61042e600480803573ffffffffffffffffffffffffffffffffffffffff16906020019091905050611981565b6040518082815260200191505060405180910390f35b341561044f57600080fd5b61046e6004808035906020019091908035906020019091905050611999565b604051808481526020018373ffffffffffffffffffffffffffffffffffffffff1673ffffffffffffffffffffffffffffffffffffffff16815260200182151515158152602001935050505060405180910390f35b6104ca611a0c565b604051808215151515815260200191505060405180910390f35b34156104ef57600080fd5b6104f7611be9565b604051808215151515815260200191505060405180910390f35b6105306004808035906020019091908035906020019091905050611c44565b604051808215151515815260200191505060405180910390f35b341561055557600080fd5b61055d611df3565b6040518082815260200191505060405180910390f35b6105896004808035906020019091905050611df9565b604051808215151515815260200191505060405180910390f35b6105b96004808035906020019091905050611f88565b604051808215151515815260200191505060405180910390f35b610635600480803590602001908201803590602001908080601f01602080910402602001604051908101604052809392919081815260200183838082843782019150505050505091908035906020019091908035906020019091905050612360565b60405180831515151581526020018281526020019250505060405180910390f35b341561066157600080fd5b6106806004808035906020019091908035906020019091905050612733565b604051808215151515815260200191505060405180910390f35b34156106a557600080fd5b6106da600480803573ffffffffffffffffffffffffffffffffffffffff169060200190919080359060200190919050506127d0565b60405180806020018581526020018481526020018381526020018281038252868181546001816001161561010002031660029004815260200191508054600181600116156101000203166002900480156107755780601f1061074a57610100808354040283529160200191610775565b820191906000526020600020905b81548152906001019060200180831161075857829003601f168201915b50509550505050505060405180910390f35b341561079257600080fd5b6107a8600480803590602001909190505061280c565b6040518082815260200191505060405180910390f35b34156107c957600080fd5b6107d1612824565b604051808273ffffffffffffffffffffffffffffffffffffffff1673ffffffffffffffffffffffffffffffffffffffff16815260200191505060405180910390f35b600034831480156108245750600083115b151561082f57600080fd5b6006600085815260200190815260200160002060008154809291906001019190505550606434605a0281151561086157fe5b04600360006005600088815260200190815260200160002060009054906101000a900473ffffffffffffffffffffffffffffffffffffffff1673ffffffffffffffffffffffffffffffffffffffff1673ffffffffffffffffffffffffffffffffffffffff1681526020019081526020016000206000016000828254039250508190555060001515600960003373ffffffffffffffffffffffffffffffffffffffff1673ffffffffffffffffffffffffffffffffffffffff16815260200190815260200160002060009054906101000a900460ff1615151415610996576001600960003373ffffffffffffffffffffffffffffffffffffffff1673ffffffffffffffffffffffffffffffffffffffff16815260200190815260200160002060006101000a81548160ff0219169083151502179055505b346004600086815260200190815260200160002060066000878152602001908152602001600020548154811015156109ca57fe5b90600052602060002090600202016000018190555033600460008681526020019081526020016000206006600087815260200190815260200160002054815481101515610a1357fe5b906000526020600020906002020160010160006101000a81548173ffffffffffffffffffffffffffffffffffffffff021916908373ffffffffffffffffffffffffffffffffffffffff16021790555081600460008681526020019081526020016000206006600087815260200190815260200160002054815481101515610a9657fe5b906000526020600020906002020160010160146101000a81548160ff0219169083151502179055507fd51af916ec27930d708168315bc82401ecf73ab390083b9558a6fb4bba5cb09c336000809054906101000a900473ffffffffffffffffffffffffffffffffffffffff1634604051808473ffffffffffffffffffffffffffffffffffffffff1673ffffffffffffffffffffffffffffffffffffffff1681526020018373ffffffffffffffffffffffffffffffffffffffff1673ffffffffffffffffffffffffffffffffffffffff168152602001828152602001935050505060405180910390a1600190509392505050565b6000803483148015610b9b5750600083115b1515610ba657600080fd5b82600360003373ffffffffffffffffffffffffffffffffffffffff1673ffffffffffffffffffffffffffffffffffffffff168152602001908152602001600020600001600082825401925050819055507fd51af916ec27930d708168315bc82401ecf73ab390083b9558a6fb4bba5cb09c336000809054906101000a900473ffffffffffffffffffffffffffffffffffffffff1634604051808473ffffffffffffffffffffffffffffffffffffffff1673ffffffffffffffffffffffffffffffffffffffff1681526020018373ffffffffffffffffffffffffffffffffffffffff1673ffffffffffffffffffffffffffffffffffffffff168152602001828152602001935050505060405180910390a16001600360003373ffffffffffffffffffffffffffffffffffffffff1673ffffffffffffffffffffffffffffffffffffffff1681526020019081526020016000206000015491509150915091565b600080600360003373ffffffffffffffffffffffffffffffffffffffff1673ffffffffffffffffffffffffffffffffffffffff168152602001908152602001600020600001541415905090565b60008082118015610da657506001600360003373ffffffffffffffffffffffffffffffffffffffff1673ffffffffffffffffffffffffffffffffffffffff168152602001908152602001600020600001540382105b1515610db157600080fd5b3373ffffffffffffffffffffffffffffffffffffffff166108fc839081150290604051600060405180830381858888f193505050501515610df157600080fd5b7fd51af916ec27930d708168315bc82401ecf73ab390083b9558a6fb4bba5cb09c6000809054906101000a900473ffffffffffffffffffffffffffffffffffffffff163384604051808473ffffffffffffffffffffffffffffffffffffffff1673ffffffffffffffffffffffffffffffffffffffff1681526020018373ffffffffffffffffffffffffffffffffffffffff1673ffffffffffffffffffffffffffffffffffffffff168152602001828152602001935050505060405180910390a160019050919050565b600a6020528060005260406000206000915090505481565b60096020528060005260406000206000915054906101000a900460ff1681565b60036020528060005260406000206000915090508060000154905081565b600281815481101515610f1f57fe5b90600052602060002090016000915054906101000a900473ffffffffffffffffffffffffffffffffffffffff1681565b60008060003373ffffffffffffffffffffffffffffffffffffffff166000809054906101000a900473ffffffffffffffffffffffffffffffffffffffff1673ffffffffffffffffffffffffffffffffffffffff16141515610faf57600080fd5b42600760006005600089815260200190815260200160002060009054906101000a900473ffffffffffffffffffffffffffffffffffffffff1673ffffffffffffffffffffffffffffffffffffffff1673ffffffffffffffffffffffffffffffffffffffff168152602001908152602001600020600060086000600560008b815260200190815260200160002060009054906101000a900473ffffffffffffffffffffffffffffffffffffffff1673ffffffffffffffffffffffffffffffffffffffff1673ffffffffffffffffffffffffffffffffffffffff168152602001908152602001600020548152602001908152602001600020600201541015156110b557600080fd5b6003841080156110c6575060008410155b15156110d157600080fd5b6006600086815260200190815260200160002054905060028414156114cc575b6000600660008781526020019081526020016000205411156114ab57600060046000878152602001908152602001600020600660008881526020019081526020016000205481548110151561114257fe5b90600052602060002090600202016000015414151561148257606460046000878152602001908152602001600020600660008881526020019081526020016000205481548110151561119057fe5b906000526020600020906002020160000154605a028115156111ae57fe5b04600360006005600089815260200190815260200160002060009054906101000a900473ffffffffffffffffffffffffffffffffffffffff1673ffffffffffffffffffffffffffffffffffffffff1673ffffffffffffffffffffffffffffffffffffffff1681526020019081526020016000206000016000828254019250508190555060046000868152602001908152602001600020600660008781526020019081526020016000205481548110151561126457fe5b906000526020600020906002020160010160009054906101000a900473ffffffffffffffffffffffffffffffffffffffff1673ffffffffffffffffffffffffffffffffffffffff166108fc6004600088815260200190815260200160002060066000898152602001908152602001600020548154811015156112e257fe5b9060005260206000209060020201600001549081150290604051600060405180830381858888f19350505050151561131957600080fd5b7fd51af916ec27930d708168315bc82401ecf73ab390083b9558a6fb4bba5cb09c6000809054906101000a900473ffffffffffffffffffffffffffffffffffffffff1660046000888152602001908152602001600020600660008981526020019081526020016000205481548110151561138f57fe5b906000526020600020906002020160010160009054906101000a900473ffffffffffffffffffffffffffffffffffffffff1660046000898152602001908152602001600020600660008a8152602001908152602001600020548154811015156113f457fe5b906000526020600020906002020160000154604051808473ffffffffffffffffffffffffffffffffffffffff1673ffffffffffffffffffffffffffffffffffffffff1681526020018373ffffffffffffffffffffffffffffffffffffffff1673ffffffffffffffffffffffffffffffffffffffff168152602001828152602001935050505060405180910390a15b6006600086815260200190815260200160002060008154809291906001900391905055506110f1565b80600660008781526020019081526020016000208190555060019250611946565b60018414156114de57600191506114ed565b60008414156114ec57600091505b5b5b60006006600087815260200190815260200160002054111561192957600060046000878152602001908152602001600020600660008881526020019081526020016000205481548110151561153f57fe5b9060005260206000209060020201600001541415156119005760046000868152602001908152602001600020600660008781526020019081526020016000205481548110151561158b57fe5b906000526020600020906002020160010160149054906101000a900460ff1615158215151415611828576004600086815260200190815260200160002060066000878152602001908152602001600020548154811015156115e857fe5b906000526020600020906002020160010160009054906101000a900473ffffffffffffffffffffffffffffffffffffffff1673ffffffffffffffffffffffffffffffffffffffff166108fc606460046000898152602001908152602001600020600660008a81526020019081526020016000205481548110151561166857fe5b90600052602060002090600202016000015460bd0281151561168657fe5b049081150290604051600060405180830381858888f1935050505015156116ac57600080fd5b7fd51af916ec27930d708168315bc82401ecf73ab390083b9558a6fb4bba5cb09c6000809054906101000a900473ffffffffffffffffffffffffffffffffffffffff1660046000888152602001908152602001600020600660008981526020019081526020016000205481548110151561172257fe5b906000526020600020906002020160010160009054906101000a900473ffffffffffffffffffffffffffffffffffffffff166064600460008a8152602001908152602001600020600660008b81526020019081526020016000205481548110151561178957fe5b90600052602060002090600202016000015460bd028115156117a757fe5b04604051808473ffffffffffffffffffffffffffffffffffffffff1673ffffffffffffffffffffffffffffffffffffffff1681526020018373ffffffffffffffffffffffffffffffffffffffff1673ffffffffffffffffffffffffffffffffffffffff168152602001828152602001935050505060405180910390a16118ff565b606460046000878152602001908152602001600020600660008881526020019081526020016000205481548110151561185d57fe5b90600052602060002090600202016000015460c70281151561187b57fe5b04600360006005600089815260200190815260200160002060009054906101000a900473ffffffffffffffffffffffffffffffffffffffff1673ffffffffffffffffffffffffffffffffffffffff1673ffffffffffffffffffffffffffffffffffffffff168152602001908152602001600020600001600082825401925050819055505b5b6006600086815260200190815260200160002060008154809291906001900391905055506114ee565b806006600087815260200190815260200160002081905550600192505b505092915050565b60056020528060005260406000206000915054906101000a900473ffffffffffffffffffffffffffffffffffffffff1681565b60086020528060005260406000206000915090505481565b6004602052816000526040600020818154811015156119b457fe5b9060005260206000209060020201600091509150508060000154908060010160009054906101000a900473ffffffffffffffffffffffffffffffffffffffff16908060010160149054906101000a900460ff16905083565b600042603c600a60003373ffffffffffffffffffffffffffffffffffffffff1673ffffffffffffffffffffffffffffffffffffffff1681526020019081526020016000205401101515611a5e57600080fd5b3373ffffffffffffffffffffffffffffffffffffffff166108fc600360003373ffffffffffffffffffffffffffffffffffffffff1673ffffffffffffffffffffffffffffffffffffffff168152602001908152602001600020600001549081150290604051600060405180830381858888f193505050501515611ae057600080fd5b7fd51af916ec27930d708168315bc82401ecf73ab390083b9558a6fb4bba5cb09c6000809054906101000a900473ffffffffffffffffffffffffffffffffffffffff1633600360003373ffffffffffffffffffffffffffffffffffffffff1673ffffffffffffffffffffffffffffffffffffffff16815260200190815260200160002060000154604051808473ffffffffffffffffffffffffffffffffffffffff1673ffffffffffffffffffffffffffffffffffffffff1681526020018373ffffffffffffffffffffffffffffffffffffffff1673ffffffffffffffffffffffffffffffffffffffff168152602001828152602001935050505060405180910390a16001905090565b600060011515600960003373ffffffffffffffffffffffffffffffffffffffff1673ffffffffffffffffffffffffffffffffffffffff16815260200190815260200160002060009054906101000a900460ff16151514905090565b60003482141515611c5457600080fd5b34600460008581526020019081526020016000206006600086815260200190815260200160002054815481101515611c8857fe5b90600052602060002090600202016000016000828254019250508190555034600360006005600087815260200190815260200160002060009054906101000a900473ffffffffffffffffffffffffffffffffffffffff1673ffffffffffffffffffffffffffffffffffffffff1673ffffffffffffffffffffffffffffffffffffffff168152602001908152602001600020600001600082825403925050819055507fd51af916ec27930d708168315bc82401ecf73ab390083b9558a6fb4bba5cb09c336000809054906101000a900473ffffffffffffffffffffffffffffffffffffffff1634604051808473ffffffffffffffffffffffffffffffffffffffff1673ffffffffffffffffffffffffffffffffffffffff1681526020018373ffffffffffffffffffffffffffffffffffffffff1673ffffffffffffffffffffffffffffffffffffffff168152602001828152602001935050505060405180910390a16001905092915050565b60015481565b60003482148015611e0a5750600082115b1515611e1557600080fd5b34600360003373ffffffffffffffffffffffffffffffffffffffff1673ffffffffffffffffffffffffffffffffffffffff1681526020019081526020016000206000018190555060028054806001018281611e709190612849565b9160005260206000209001600033909190916101000a81548173ffffffffffffffffffffffffffffffffffffffff021916908373ffffffffffffffffffffffffffffffffffffffff160217905550507fd51af916ec27930d708168315bc82401ecf73ab390083b9558a6fb4bba5cb09c336000809054906101000a900473ffffffffffffffffffffffffffffffffffffffff1634604051808473ffffffffffffffffffffffffffffffffffffffff1673ffffffffffffffffffffffffffffffffffffffff1681526020018373ffffffffffffffffffffffffffffffffffffffff1673ffffffffffffffffffffffffffffffffffffffff168152602001828152602001935050505060405180910390a160019050919050565b600042603c600760003373ffffffffffffffffffffffffffffffffffffffff1673ffffffffffffffffffffffffffffffffffffffff1681526020019081526020016000206000600860003373ffffffffffffffffffffffffffffffffffffffff1673ffffffffffffffffffffffffffffffffffffffff168152602001908152602001600020548152602001908152602001600020600201540311151561202d57600080fd5b600060046000848152602001908152602001600020600660008581526020019081526020016000205481548110151561206257fe5b9060005260206000209060020201600001819055506004600083815260200190815260200160002060066000848152602001908152602001600020548154811015156120aa57fe5b906000526020600020906002020160010160009054906101000a900473ffffffffffffffffffffffffffffffffffffffff1673ffffffffffffffffffffffffffffffffffffffff166108fc606460046000868152602001908152602001600020600660008781526020019081526020016000205481548110151561212a57fe5b906000526020600020906002020160000154605f0281151561214857fe5b049081150290604051600060405180830381858888f19350505050151561216e57600080fd5b60646004600084815260200190815260200160002060066000858152602001908152602001600020548154811015156121a357fe5b906000526020600020906002020160000154605f028115156121c157fe5b04600360006005600086815260200190815260200160002060009054906101000a900473ffffffffffffffffffffffffffffffffffffffff1673ffffffffffffffffffffffffffffffffffffffff1673ffffffffffffffffffffffffffffffffffffffff168152602001908152602001600020600001600082825401925050819055507fd51af916ec27930d708168315bc82401ecf73ab390083b9558a6fb4bba5cb09c6000809054906101000a900473ffffffffffffffffffffffffffffffffffffffff163360646004600087815260200190815260200160002060066000888152602001908152602001600020548154811015156122bd57fe5b906000526020600020906002020160000154605f028115156122db57fe5b04604051808473ffffffffffffffffffffffffffffffffffffffff1673ffffffffffffffffffffffffffffffffffffffff1681526020018373ffffffffffffffffffffffffffffffffffffffff1673ffffffffffffffffffffffffffffffffffffffff168152602001828152602001935050505060405180910390a160019050919050565b600080428311151561237157600080fd5b84600760003373ffffffffffffffffffffffffffffffffffffffff1673ffffffffffffffffffffffffffffffffffffffff1681526020019081526020016000206000600860003373ffffffffffffffffffffffffffffffffffffffff1673ffffffffffffffffffffffffffffffffffffffff1681526020019081526020016000205481526020019081526020016000206000019080519060200190612417929190612875565b5083600760003373ffffffffffffffffffffffffffffffffffffffff1673ffffffffffffffffffffffffffffffffffffffff1681526020019081526020016000206000600860003373ffffffffffffffffffffffffffffffffffffffff1673ffffffffffffffffffffffffffffffffffffffff1681526020019081526020016000205481526020019081526020016000206001018190555082600760003373ffffffffffffffffffffffffffffffffffffffff1673ffffffffffffffffffffffffffffffffffffffff1681526020019081526020016000206000600860003373ffffffffffffffffffffffffffffffffffffffff1673ffffffffffffffffffffffffffffffffffffffff16815260200190815260200160002054815260200190815260200160002060020181905550600154600760003373ffffffffffffffffffffffffffffffffffffffff1673ffffffffffffffffffffffffffffffffffffffff1681526020019081526020016000206000600860003373ffffffffffffffffffffffffffffffffffffffff1673ffffffffffffffffffffffffffffffffffffffff1681526020019081526020016000205481526020019081526020016000206003018190555082600a60003373ffffffffffffffffffffffffffffffffffffffff1673ffffffffffffffffffffffffffffffffffffffff16815260200190815260200160002054101561266b5782600a60003373ffffffffffffffffffffffffffffffffffffffff1673ffffffffffffffffffffffffffffffffffffffff168152602001908152602001600020819055505b3360056000600154815260200190815260200160002060006101000a81548173ffffffffffffffffffffffffffffffffffffffff021916908373ffffffffffffffffffffffffffffffffffffffff160217905550600160008154809291906001019190505550600860003373ffffffffffffffffffffffffffffffffffffffff1673ffffffffffffffffffffffffffffffffffffffff168152602001908152602001600020600081548092919060010191905055506001806001540391509150935093915050565b600080821180156127c85750606482605a0281151561274e57fe5b04600360006005600087815260200190815260200160002060009054906101000a900473ffffffffffffffffffffffffffffffffffffffff1673ffffffffffffffffffffffffffffffffffffffff1673ffffffffffffffffffffffffffffffffffffffff1681526020019081526020016000206000015410155b905092915050565b60076020528160005260406000206020528060005260406000206000915091505080600001908060010154908060020154908060030154905084565b60066020528060005260406000206000915090505481565b6000809054906101000a900473ffffffffffffffffffffffffffffffffffffffff1681565b8154818355818115116128705781836000526020600020918201910161286f91906128f5565b5b505050565b828054600181600116156101000203166002900490600052602060002090601f016020900481019282601f106128b657805160ff19168380011785556128e4565b828001600101855582156128e4579182015b828111156128e35782518255916020019190600101906128c8565b5b5090506128f191906128f5565b5090565b61291791905b808211156129135760008160009055506001016128fb565b5090565b905600a165627a7a72305820c1e2e34804d4a663ffc007ea6122b649211a70a15e2698a6fe56312badf34ff80029",
  "source": "pragma solidity ^0.4.0;\r\ncontract High_low\r\n{\r\n    address public admin;\r\n    uint256 public game_id;\r\n    \r\n    function High_low() public payable\r\n    {\r\n        admin=msg.sender;\r\n    }\r\n    \r\n    function() public payable {}\r\n    \r\n    address[] public broker_addresses;\r\n    \r\n    event Transfer_amount(address _sender,address _receiver,uint256 _transfer_amount);\r\n    \r\n    struct  broker\r\n    {\r\n        uint256 stake_amount;\r\n    }\r\n    mapping(address=>broker) public broker_map;\r\n    \r\n    struct better\r\n    {\r\n        uint256 bet_amount; \r\n        address better_address;\r\n        bool option;\r\n    }\r\n    mapping(uint256=>better[]) public game_id_map_trader;\r\n\r\n    mapping(uint256=>address) public game_id_map_broker;//key:game_id\r\n    \r\n    mapping(uint256=>uint256) public gamers_map;//key:game_id value:gamers how many gamers playing this game\r\n    \r\n    struct game_set\r\n    {\r\n        string stock_name;\r\n        uint256 strike_price;\r\n        uint256 expiry_time;\r\n        uint256 game_ids;\r\n    }\r\n    mapping(address=>mapping(uint256=>game_set)) public game_set_map;//key1:broker_address key2:game_number\r\n    \r\n    mapping(address=>uint256) public game_number;//key:broker value:game_number\r\n    \r\n    mapping(address=>bool) public valid_trader;//to accept as valid trader\r\n    \r\n    mapping(address=>uint256) public maximum_expiry_time_of_bet;\r\n    \r\n    function check_broker() public constant returns(bool) // is_broker\r\n    {\r\n        return broker_map[msg.sender].stake_amount!=0;\r\n    }\r\n    \r\n    function add_broker(uint256 input_amount) public payable returns (bool) // is_added\r\n    {\r\n         require(input_amount==msg.value && input_amount>0);\r\n         broker_map[msg.sender].stake_amount=msg.value;\r\n         broker_addresses.push(msg.sender);\r\n         Transfer_amount(msg.sender,admin,msg.value);\r\n         return true;\r\n    }\r\n    \r\n    function broker_set_game(string _stock_name,uint256 _strike_price,uint256 _expiry_time) public payable returns(bool,uint256) // newbet, new_game_id\r\n    {\r\n        require(_expiry_time>now);\r\n        game_set_map[msg.sender][game_number[msg.sender]].stock_name=_stock_name;\r\n        game_set_map[msg.sender][game_number[msg.sender]].strike_price=_strike_price;\r\n        game_set_map[msg.sender][game_number[msg.sender]].expiry_time=_expiry_time;\r\n        game_set_map[msg.sender][game_number[msg.sender]].game_ids=game_id;\r\n        if(maximum_expiry_time_of_bet[msg.sender]<_expiry_time)\r\n        maximum_expiry_time_of_bet[msg.sender]=_expiry_time;\r\n        game_id_map_broker[game_id]=msg.sender;\r\n        game_id++;\r\n        game_number[msg.sender]++;\r\n        return (true,(game_id-1));\r\n    }\r\n    \r\n    function add_broker_stake(uint256 input_amount) public payable returns(bool,uint256) //amount_added , stake_amount_is\r\n    {\r\n        require(input_amount==msg.value && input_amount>0);\r\n        broker_map[msg.sender].stake_amount+=input_amount;\r\n        Transfer_amount(msg.sender,admin,msg.value);\r\n        return (true,broker_map[msg.sender].stake_amount);\r\n    }\r\n    \r\n    function check_trader() public constant returns(bool) //is_already_a_trader\r\n    {\r\n        return valid_trader[msg.sender]==true;\r\n    }\r\n    \r\n    function betting_check(uint256 _game_id,uint256 input_amount) public constant returns(bool) // bet_available\r\n    {\r\n        return (input_amount>0 && broker_map[game_id_map_broker[_game_id]].stake_amount>=(90*input_amount)/100);\r\n    }\r\n    \r\n    function betting(uint256 _game_id,uint256 input_amount,bool _option) public payable returns(bool) // is_bet_success \r\n    {\r\n        require(input_amount==msg.value && input_amount>0);\r\n        gamers_map[_game_id]++;\r\n        broker_map[game_id_map_broker[_game_id]].stake_amount-=(90*msg.value)/100;\r\n        if(valid_trader[msg.sender]==false)\r\n        valid_trader[msg.sender]=true;//new trader\r\n        game_id_map_trader[_game_id][gamers_map[_game_id]].bet_amount=msg.value;\r\n        game_id_map_trader[_game_id][gamers_map[_game_id]].better_address=msg.sender;\r\n        game_id_map_trader[_game_id][gamers_map[_game_id]].option=_option;\r\n        Transfer_amount(msg.sender,admin,msg.value);\r\n        return true;\r\n    }\r\n    function admin_setting_result_and_distribute_money(uint256 _game_id,uint256 result_options) public payable returns(bool)// is_result_setted_and_prize_distributed \r\n    {\r\n        require(admin==msg.sender);\r\n        require(game_set_map[game_id_map_broker[_game_id]][game_number[game_id_map_broker[_game_id]]].expiry_time<now);\r\n        require(result_options<3 && result_options>=0);\r\n        bool result_option;\r\n        uint256 index=gamers_map[_game_id];\r\n        if(result_options==2)\r\n        {\r\n            //draw\r\n            while(gamers_map[_game_id]>0)\r\n            {\r\n                if(game_id_map_trader[_game_id][gamers_map[_game_id]].bet_amount!=0)\r\n                {\r\n                    broker_map[game_id_map_broker[_game_id]].stake_amount+=(90*game_id_map_trader[_game_id][gamers_map[_game_id]].bet_amount)/100;\r\n                    game_id_map_trader[_game_id][gamers_map[_game_id]].better_address.transfer(game_id_map_trader[_game_id][gamers_map[_game_id]].bet_amount);\r\n                    Transfer_amount(admin,game_id_map_trader[_game_id][gamers_map[_game_id]].better_address,game_id_map_trader[_game_id][gamers_map[_game_id]].bet_amount);//trader transfer\r\n                }\r\n                gamers_map[_game_id]--;\r\n            }\r\n            gamers_map[_game_id]=index;\r\n            return true;\r\n        }\r\n        else if(result_options==1)\r\n        {\r\n            //set high as result_option\r\n            result_option=true;\r\n        }\r\n        else if(result_options==0)\r\n        {\r\n            //set low as result_option\r\n            result_option=false;\r\n        }\r\n        while(gamers_map[_game_id]>0)\r\n        {\r\n            if(game_id_map_trader[_game_id][gamers_map[_game_id]].bet_amount!=0)\r\n            {\r\n                if(result_option==game_id_map_trader[_game_id][gamers_map[_game_id]].option)\r\n                {\r\n                    game_id_map_trader[_game_id][gamers_map[_game_id]].better_address.transfer((189*game_id_map_trader[_game_id][gamers_map[_game_id]].bet_amount)/100);\r\n                    Transfer_amount(admin,game_id_map_trader[_game_id][gamers_map[_game_id]].better_address,(189*game_id_map_trader[_game_id][gamers_map[_game_id]].bet_amount)/100);//transfer amount to trader\r\n                }\r\n                else\r\n                {\r\n                    broker_map[game_id_map_broker[_game_id]].stake_amount+=(199*game_id_map_trader[_game_id][gamers_map[_game_id]].bet_amount)/100;\r\n                }\r\n            }\r\n            gamers_map[_game_id]--;\r\n        }\r\n        gamers_map[_game_id]=index;\r\n        return true;\r\n    }\r\n    function trader_increase_bet_amount(uint256 _game_id,uint256 input_amount) public payable returns(bool)// is_increase_success\r\n    {\r\n        //initially UI needs to call betting_check()\r\n        require(input_amount==msg.value);\r\n        game_id_map_trader[_game_id][gamers_map[_game_id]].bet_amount+=msg.value;\r\n        broker_map[game_id_map_broker[_game_id]].stake_amount-=msg.value;\r\n        Transfer_amount(msg.sender,admin,msg.value);\r\n        return true;\r\n    }\r\n    function trader_cancel_bet_and_widthdraw(uint256 _game_id) public payable returns(bool)// is_withdraw_success\r\n    {\r\n        require(game_set_map[msg.sender][game_number[msg.sender]].expiry_time- 1 minutes > now);\r\n        game_id_map_trader[_game_id][gamers_map[_game_id]].bet_amount=0;\r\n        game_id_map_trader[_game_id][gamers_map[_game_id]].better_address.transfer((95*game_id_map_trader[_game_id][gamers_map[_game_id]].bet_amount)/100);\r\n        broker_map[game_id_map_broker[_game_id]].stake_amount+=(95*game_id_map_trader[_game_id][gamers_map[_game_id]].bet_amount)/100;\r\n        Transfer_amount(admin,msg.sender,(95*game_id_map_trader[_game_id][gamers_map[_game_id]].bet_amount)/100);\r\n        return true;\r\n    }\r\n    function broker_de_registration() public payable returns(bool) // is_de_registered\r\n    {\r\n        require(maximum_expiry_time_of_bet[msg.sender] + 1 minutes < now);\r\n        msg.sender.transfer(broker_map[msg.sender].stake_amount);\r\n        Transfer_amount(admin,msg.sender,broker_map[msg.sender].stake_amount);\r\n        return true;\r\n    }\r\n    function broker_withdraw_amount_from_stake(uint256 input_amount_to_withdraw) public payable returns(bool) // is_de_registered\r\n    {\r\n        require(input_amount_to_withdraw>0 && input_amount_to_withdraw < broker_map[msg.sender].stake_amount-1);\r\n        msg.sender.transfer(input_amount_to_withdraw);\r\n        Transfer_amount(admin,msg.sender,input_amount_to_withdraw);\r\n        return true;\r\n    }\r\n}",
  "sourcePath": "D:\\teamone\\High-Low\\contracts\\High_low.sol",
  "compiler": {
    "name": "solc",
    "version": "0.4.19+commit.c4cbbb05.Emscripten.clang"
  },
  "schemaVersion": "2.0.0",
  "updatedAt": "2018-04-01T11:32:13.632Z"
}