{
  "contractName": "Project_high_low",
  "abi": [
    {
      "constant": false,
      "inputs": [],
      "name": "check_br",
      "outputs": [
        {
          "name": "newuser",
          "type": "bool"
        }
      ],
      "payable": false,
      "stateMutability": "nonpayable",
      "type": "function"
    },
    {
      "constant": false,
      "inputs": [],
      "name": "add_br",
      "outputs": [
        {
          "name": "is_added",
          "type": "bool"
        }
      ],
      "payable": false,
      "stateMutability": "nonpayable",
      "type": "function"
    },
    {
      "constant": false,
      "inputs": [
        {
          "name": "sto_name",
          "type": "string"
        },
        {
          "name": "str_price",
          "type": "uint256"
        },
        {
          "name": "exp_time",
          "type": "uint256"
        }
      ],
      "name": "br_set_game",
      "outputs": [
        {
          "name": "newbet",
          "type": "bool"
        }
      ],
      "payable": false,
      "stateMutability": "nonpayable",
      "type": "function"
    },
    {
      "constant": false,
      "inputs": [],
      "name": "add_br_stake",
      "outputs": [
        {
          "name": "amount_added",
          "type": "bool"
        }
      ],
      "payable": false,
      "stateMutability": "nonpayable",
      "type": "function"
    }
  ],
  "bytecode": "0x6060604052341561000f57600080fd5b6106d88061001e6000396000f300606060405260043610610062576000357c0100000000000000000000000000000000000000000000000000000000900463ffffffff16806341fb019d14610067578063ccd7bb0014610094578063ea91103f146100c1578063f79db1e514610148575b600080fd5b341561007257600080fd5b61007a610175565b604051808215151515815260200191505060405180910390f35b341561009f57600080fd5b6100a76101ce565b604051808215151515815260200191505060405180910390f35b34156100cc57600080fd5b61012e600480803590602001908201803590602001908080601f01602080910402602001604051908101604052809392919081815260200183838082843782019150505050505091908035906020019091908035906020019091905050610281565b604051808215151515815260200191505060405180910390f35b341561015357600080fd5b61015b610522565b604051808215151515815260200191505060405180910390f35b600034600160003373ffffffffffffffffffffffffffffffffffffffff1673ffffffffffffffffffffffffffffffffffffffff168152602001908152602001600020600001600082825401925050819055506001905090565b600034600160003373ffffffffffffffffffffffffffffffffffffffff1673ffffffffffffffffffffffffffffffffffffffff168152602001908152602001600020600001819055506002805480600101828161022b91906105db565b9160005260206000209001600033909190916101000a81548173ffffffffffffffffffffffffffffffffffffffff021916908373ffffffffffffffffffffffffffffffffffffffff160217905550506001905090565b600083600460003373ffffffffffffffffffffffffffffffffffffffff1673ffffffffffffffffffffffffffffffffffffffff1681526020019081526020016000206000600560003373ffffffffffffffffffffffffffffffffffffffff1673ffffffffffffffffffffffffffffffffffffffff168152602001908152602001600020600001548152602001908152602001600020600001908051906020019061032c929190610607565b5082600460003373ffffffffffffffffffffffffffffffffffffffff1673ffffffffffffffffffffffffffffffffffffffff1681526020019081526020016000206000600560003373ffffffffffffffffffffffffffffffffffffffff1673ffffffffffffffffffffffffffffffffffffffff1681526020019081526020016000206000015481526020019081526020016000206001018190555081600460003373ffffffffffffffffffffffffffffffffffffffff1673ffffffffffffffffffffffffffffffffffffffff1681526020019081526020016000206000600560003373ffffffffffffffffffffffffffffffffffffffff1673ffffffffffffffffffffffffffffffffffffffff1681526020019081526020016000206000015481526020019081526020016000206002018190555033600360008054815260200190815260200160002060006101000a81548173ffffffffffffffffffffffffffffffffffffffff021916908373ffffffffffffffffffffffffffffffffffffffff1602179055506000808154809291906001019190505550600560003373ffffffffffffffffffffffffffffffffffffffff1673ffffffffffffffffffffffffffffffffffffffff16815260200190815260200160002060000160008154809291906001019190505550600190509392505050565b600080600090505b6000600280549050141561054157600191506105d7565b3373ffffffffffffffffffffffffffffffffffffffff1660028281548110151561056757fe5b906000526020600020900160009054906101000a900473ffffffffffffffffffffffffffffffffffffffff1673ffffffffffffffffffffffffffffffffffffffff1614156105b857600091506105d7565b80806001019150506002805490508110156105d25761052a565b600191505b5090565b815481835581811511610602578183600052602060002091820191016106019190610687565b5b505050565b828054600181600116156101000203166002900490600052602060002090601f016020900481019282601f1061064857805160ff1916838001178555610676565b82800160010185558215610676579182015b8281111561067557825182559160200191906001019061065a565b5b5090506106839190610687565b5090565b6106a991905b808211156106a557600081600090555060010161068d565b5090565b905600a165627a7a723058208078f9aef3876fc95daa48fb0118d025bb65a8eba796f35129cd1637066f0d880029",
  "source": "pragma solidity ^0.4.0;\ncontract Project_high_low\n{\n    uint256 game_id;\n    struct  broker\n    {\n        uint256 st_amount;\n    }\n    mapping(address=>broker)br_map;\n    address[] br_addr;\n    mapping(uint256=>address)game_id_map;\n    struct game_set\n    {\n        string sto_name;\n        uint256 str_price;\n        uint256 exp_time;\n    }\n    mapping(address=>mapping(uint256=>game_set))game_set_map;\n    struct bet_no\n    {\n        uint256 num;\n    }\n    mapping(address=>bet_no)no_bets;\n    function check_br() returns(bool newuser)\n    {\n        uint256 i=0;\n        do\n        {\n            if(br_addr.length==0)\n            {\n                return true;\n            }\n            else if(br_addr[i]==msg.sender)\n            {\n                return false;\n            }\n            i++;\n        }while(i<br_addr.length);\n        return (true);\n    }\n    function add_br() returns (bool is_added)\n    {\n         br_map[msg.sender].st_amount=msg.value;\n         br_addr.push(msg.sender);\n         return true;\n    }\n    function br_set_game(string sto_name,uint256 str_price,uint256 exp_time) returns(bool newbet)\n    {\n        game_set_map[msg.sender][no_bets[msg.sender].num].sto_name=sto_name;\n        game_set_map[msg.sender][no_bets[msg.sender].num].str_price=str_price;\n        game_set_map[msg.sender][no_bets[msg.sender].num].exp_time=exp_time;\n        game_id_map[game_id]=msg.sender;\n        game_id++;\n        no_bets[msg.sender].num++;\n        return true;\n    }\n    function add_br_stake() returns(bool amount_added)\n    {\n        br_map[msg.sender].st_amount+=msg.value;\n        return true;\n    }\n}",
  "sourcePath": "D:\\teamone\\High-Low\\contracts\\firstcont.sol",
  "compiler": {
    "name": "solc",
    "version": "0.4.19+commit.c4cbbb05.Emscripten.clang"
  },
  "schemaVersion": "2.0.0",
  "updatedAt": "2018-03-29T10:59:05.945Z"
}